{
  "contractName": "EventOrganizer",
  "abi": [
    {
      "inputs": [
        {
          "internalType": "uint256",
          "name": "",
          "type": "uint256"
        }
      ],
      "name": "events",
      "outputs": [
        {
          "internalType": "address",
          "name": "admin",
          "type": "address"
        },
        {
          "internalType": "uint256",
          "name": "id",
          "type": "uint256"
        },
        {
          "internalType": "string",
          "name": "name",
          "type": "string"
        },
        {
          "internalType": "uint256",
          "name": "ticketCount",
          "type": "uint256"
        },
        {
          "internalType": "uint256",
          "name": "ticketRemaining",
          "type": "uint256"
        },
        {
          "internalType": "uint256",
          "name": "price",
          "type": "uint256"
        },
        {
          "internalType": "uint256",
          "name": "date",
          "type": "uint256"
        }
      ],
      "stateMutability": "view",
      "type": "function"
    },
    {
      "inputs": [],
      "name": "nextId",
      "outputs": [
        {
          "internalType": "uint256",
          "name": "",
          "type": "uint256"
        }
      ],
      "stateMutability": "view",
      "type": "function"
    },
    {
      "inputs": [
        {
          "internalType": "address",
          "name": "",
          "type": "address"
        },
        {
          "internalType": "uint256",
          "name": "",
          "type": "uint256"
        }
      ],
      "name": "tickets",
      "outputs": [
        {
          "internalType": "uint256",
          "name": "",
          "type": "uint256"
        }
      ],
      "stateMutability": "view",
      "type": "function"
    },
    {
      "inputs": [
        {
          "internalType": "string",
          "name": "_name",
          "type": "string"
        },
        {
          "internalType": "uint256",
          "name": "_ticketCount",
          "type": "uint256"
        },
        {
          "internalType": "uint256",
          "name": "_ticketRemaining",
          "type": "uint256"
        },
        {
          "internalType": "uint256",
          "name": "_price",
          "type": "uint256"
        },
        {
          "internalType": "uint256",
          "name": "_date",
          "type": "uint256"
        }
      ],
      "name": "createEvent",
      "outputs": [],
      "stateMutability": "nonpayable",
      "type": "function"
    },
    {
      "inputs": [
        {
          "internalType": "uint256",
          "name": "_id",
          "type": "uint256"
        },
        {
          "internalType": "uint256",
          "name": "_quantity",
          "type": "uint256"
        }
      ],
      "name": "buyTicket",
      "outputs": [],
      "stateMutability": "payable",
      "type": "function"
    },
    {
      "inputs": [
        {
          "internalType": "uint256",
          "name": "_eventId",
          "type": "uint256"
        },
        {
          "internalType": "uint256",
          "name": "_quantity",
          "type": "uint256"
        },
        {
          "internalType": "address",
          "name": "to",
          "type": "address"
        }
      ],
      "name": "transferTicket",
      "outputs": [],
      "stateMutability": "nonpayable",
      "type": "function"
    }
  ],
  "bytecode": "0x608060405234801561001057600080fd5b5061126f806100206000396000f3fe6080604052600436106100555760003560e01c80630b7914301461005a578063298ec2081461009d57806361b8ce8c146100b9578063dae7a13c146100e4578063dbf3f3c914610121578063f086a09b1461014a575b600080fd5b34801561006657600080fd5b50610081600480360381019061007c919061094d565b610173565b6040516100949796959493929190610a63565b60405180910390f35b6100b760048036038101906100b29190610ad9565b61025d565b005b3480156100c557600080fd5b506100ce610445565b6040516100db9190610b19565b60405180910390f35b3480156100f057600080fd5b5061010b60048036038101906101069190610b60565b61044b565b6040516101189190610b19565b60405180910390f35b34801561012d57600080fd5b5061014860048036038101906101439190610c05565b610470565b005b34801561015657600080fd5b50610171600480360381019061016c9190610c9f565b610651565b005b60006020528060005260406000206000915090508060000160009054906101000a900473ffffffffffffffffffffffffffffffffffffffff16908060010154908060020180546101c290610d21565b80601f01602080910402602001604051908101604052809291908181526020018280546101ee90610d21565b801561023b5780601f106102105761010080835404028352916020019161023b565b820191906000526020600020905b81548152906001019060200180831161021e57829003601f168201915b5050505050908060030154908060040154908060050154908060060154905087565b81600080600083815260200190815260200160002060060154036102b6576040517f08c379a00000000000000000000000000000000000000000000000000000000081526004016102ad90610d9e565b60405180910390fd5b8242600080838152602001908152602001600020600601541161030e576040517f08c379a000000000000000000000000000000000000000000000000000000000815260040161030590610e30565b60405180910390fd5b600080600086815260200190815260200160002090508381600501546103349190610e7f565b3414610375576040517f08c379a000000000000000000000000000000000000000000000000000000000815260040161036c90610f25565b60405180910390fd5b83816004015410156103bc576040517f08c379a00000000000000000000000000000000000000000000000000000000081526004016103b390610fb7565b60405180910390fd5b838160040160008282546103d09190610fd7565b9250508190555083600160003373ffffffffffffffffffffffffffffffffffffffff1673ffffffffffffffffffffffffffffffffffffffff16815260200190815260200160002060008781526020019081526020016000206000828254610437919061100b565b925050819055505050505050565b60025481565b6001602052816000526040600020602052806000526040600020600091509150505481565b8042106104b2576040517f08c379a00000000000000000000000000000000000000000000000000000000081526004016104a9906110d3565b60405180910390fd5b600084116104f5576040517f08c379a00000000000000000000000000000000000000000000000000000000081526004016104ec90611165565b60405180910390fd5b6040518060e001604052803373ffffffffffffffffffffffffffffffffffffffff168152602001600254815260200187878080601f016020809104026020016040519081016040528093929190818152602001838380828437600081840152601f19601f82011690508083019250505050505050815260200185815260200184815260200183815260200182815250600080600254815260200190815260200160002060008201518160000160006101000a81548173ffffffffffffffffffffffffffffffffffffffff021916908373ffffffffffffffffffffffffffffffffffffffff16021790555060208201518160010155604082015181600201908051906020019061060592919061086a565b50606082015181600301556080820151816004015560a0820151816005015560c082015181600601559050506002600081548092919061064490611185565b9190505550505050505050565b82600080600083815260200190815260200160002060060154036106aa576040517f08c379a00000000000000000000000000000000000000000000000000000000081526004016106a190610d9e565b60405180910390fd5b83426000808381526020019081526020016000206006015411610702576040517f08c379a00000000000000000000000000000000000000000000000000000000081526004016106f990610e30565b60405180910390fd5b83600160003373ffffffffffffffffffffffffffffffffffffffff1673ffffffffffffffffffffffffffffffffffffffff1681526020019081526020016000206000878152602001908152602001600020541015610795576040517f08c379a000000000000000000000000000000000000000000000000000000000815260040161078c90611219565b60405180910390fd5b83600160003373ffffffffffffffffffffffffffffffffffffffff1673ffffffffffffffffffffffffffffffffffffffff168152602001908152602001600020600087815260200190815260200160002060008282546107f59190610fd7565b9250508190555083600160008573ffffffffffffffffffffffffffffffffffffffff1673ffffffffffffffffffffffffffffffffffffffff1681526020019081526020016000206000878152602001908152602001600020600082825461085c919061100b565b925050819055505050505050565b82805461087690610d21565b90600052602060002090601f01602090048101928261089857600085556108df565b82601f106108b157805160ff19168380011785556108df565b828001600101855582156108df579182015b828111156108de5782518255916020019190600101906108c3565b5b5090506108ec91906108f0565b5090565b5b808211156109095760008160009055506001016108f1565b5090565b600080fd5b600080fd5b6000819050919050565b61092a81610917565b811461093557600080fd5b50565b60008135905061094781610921565b92915050565b6000602082840312156109635761096261090d565b5b600061097184828501610938565b91505092915050565b600073ffffffffffffffffffffffffffffffffffffffff82169050919050565b60006109a58261097a565b9050919050565b6109b58161099a565b82525050565b6109c481610917565b82525050565b600081519050919050565b600082825260208201905092915050565b60005b83811015610a045780820151818401526020810190506109e9565b83811115610a13576000848401525b50505050565b6000601f19601f8301169050919050565b6000610a35826109ca565b610a3f81856109d5565b9350610a4f8185602086016109e6565b610a5881610a19565b840191505092915050565b600060e082019050610a78600083018a6109ac565b610a8560208301896109bb565b8181036040830152610a978188610a2a565b9050610aa660608301876109bb565b610ab360808301866109bb565b610ac060a08301856109bb565b610acd60c08301846109bb565b98975050505050505050565b60008060408385031215610af057610aef61090d565b5b6000610afe85828601610938565b9250506020610b0f85828601610938565b9150509250929050565b6000602082019050610b2e60008301846109bb565b92915050565b610b3d8161099a565b8114610b4857600080fd5b50565b600081359050610b5a81610b34565b92915050565b60008060408385031215610b7757610b7661090d565b5b6000610b8585828601610b4b565b9250506020610b9685828601610938565b9150509250929050565b600080fd5b600080fd5b600080fd5b60008083601f840112610bc557610bc4610ba0565b5b8235905067ffffffffffffffff811115610be257610be1610ba5565b5b602083019150836001820283011115610bfe57610bfd610baa565b5b9250929050565b60008060008060008060a08789031215610c2257610c2161090d565b5b600087013567ffffffffffffffff811115610c4057610c3f610912565b5b610c4c89828a01610baf565b96509650506020610c5f89828a01610938565b9450506040610c7089828a01610938565b9350506060610c8189828a01610938565b9250506080610c9289828a01610938565b9150509295509295509295565b600080600060608486031215610cb857610cb761090d565b5b6000610cc686828701610938565b9350506020610cd786828701610938565b9250506040610ce886828701610b4b565b9150509250925092565b7f4e487b7100000000000000000000000000000000000000000000000000000000600052602260045260246000fd5b60006002820490506001821680610d3957607f821691505b602082108103610d4c57610d4b610cf2565b5b50919050565b7f74686973206576656e7420646f6573206e6f7420657869737400000000000000600082015250565b6000610d886019836109d5565b9150610d9382610d52565b602082019050919050565b60006020820190508181036000830152610db781610d7b565b9050919050565b7f74686973206576656e7420646f6573206e6f742061637469766520616e796d6f60008201527f7265000000000000000000000000000000000000000000000000000000000000602082015250565b6000610e1a6022836109d5565b9150610e2582610dbe565b604082019050919050565b60006020820190508181036000830152610e4981610e0d565b9050919050565b7f4e487b7100000000000000000000000000000000000000000000000000000000600052601160045260246000fd5b6000610e8a82610917565b9150610e9583610917565b9250817fffffffffffffffffffffffffffffffffffffffffffffffffffffffffffffffff0483118215151615610ece57610ecd610e50565b5b828202905092915050565b7f6e6f7420656e6f7567682065746865722073656e740000000000000000000000600082015250565b6000610f0f6015836109d5565b9150610f1a82610ed9565b602082019050919050565b60006020820190508181036000830152610f3e81610f02565b9050919050565b7f63616e6e6f742062757920746865206576656e74207469636b6574732074686160008201527f74206973206e6f7420656e6f7567680000000000000000000000000000000000602082015250565b6000610fa1602f836109d5565b9150610fac82610f45565b604082019050919050565b60006020820190508181036000830152610fd081610f94565b9050919050565b6000610fe282610917565b9150610fed83610917565b92508282101561100057610fff610e50565b5b828203905092915050565b600061101682610917565b915061102183610917565b9250827fffffffffffffffffffffffffffffffffffffffffffffffffffffffffffffffff0382111561105657611055610e50565b5b828201905092915050565b7f746865206576656e742063616e206265206f7267616e697a656420696e20746860008201527f6520667574757265000000000000000000000000000000000000000000000000602082015250565b60006110bd6028836109d5565b91506110c882611061565b604082019050919050565b600060208201905081810360008301526110ec816110b0565b9050919050565b7f63616e20637265617465206576656e742077697468206174206c65617374206f60008201527f6e65207469636b65740000000000000000000000000000000000000000000000602082015250565b600061114f6029836109d5565b915061115a826110f3565b604082019050919050565b6000602082019050818103600083015261117e81611142565b9050919050565b600061119082610917565b91507fffffffffffffffffffffffffffffffffffffffffffffffffffffffffffffffff82036111c2576111c1610e50565b5b600182019050919050565b7f6e6f7420656e6f756768207469636b65747320746f207472616e736665720000600082015250565b6000611203601e836109d5565b915061120e826111cd565b602082019050919050565b60006020820190508181036000830152611232816111f6565b905091905056fea2646970667358221220101b091e02555e5f96e84e092073ef8c5144d103cf623989f9e4c4a30040fe9464736f6c634300080d0033",
  "immutableReferences": {},
  "source": "// SPDX-License-Identifier: MIT\r\npragma solidity >0.8.0;\r\n\r\ncontract EventOrganizer {\r\n    struct Event {\r\n        address admin;\r\n        uint id;\r\n        string name;\r\n        uint ticketCount;\r\n        uint ticketRemaining;\r\n        uint price;\r\n        uint date;\r\n    }\r\n    mapping(uint => Event) public events;\r\n    mapping(address => mapping(uint => uint)) public tickets;\r\n    uint public nextId;\r\n\r\n    function createEvent(\r\n        string calldata _name,\r\n        uint _ticketCount,\r\n        uint _ticketRemaining,\r\n        uint _price,\r\n        uint _date\r\n    ) external {\r\n        require(\r\n            block.timestamp < _date,\r\n            \"the event can be organized in the future\"\r\n        );\r\n        require(_ticketCount > 0, \"can create event with at least one ticket\");\r\n\r\n        events[nextId] = Event(\r\n            msg.sender,\r\n            nextId,\r\n            _name,\r\n            _ticketCount,\r\n            _ticketRemaining,\r\n            _price,\r\n            _date\r\n        );\r\n\r\n        nextId++;\r\n    }\r\n\r\n    function buyTicket(\r\n        uint _id,\r\n        uint _quantity\r\n    ) external payable ticketExists(_id) eventActive(_id) {\r\n        Event storage event_ = events[_id];\r\n        require(\r\n            msg.value == (event_.price * _quantity),\r\n            \"not enough ether sent\"\r\n        );\r\n        require(\r\n            event_.ticketRemaining >= _quantity,\r\n            \"cannot buy the event tickets that is not enough\"\r\n        );\r\n\r\n        event_.ticketRemaining -= _quantity;\r\n        tickets[msg.sender][_id] += _quantity;\r\n    }\r\n\r\n    function transferTicket(\r\n        uint _eventId,\r\n        uint _quantity,\r\n        address to\r\n    ) external ticketExists(_eventId) eventActive(_eventId) {\r\n        require(\r\n            tickets[msg.sender][_eventId] >= _quantity,\r\n            \"not enough tickets to transfer\"\r\n        );\r\n        tickets[msg.sender][_eventId] -= _quantity;\r\n        tickets[to][_eventId] += _quantity;\r\n    }\r\n\r\n    /** Modifiers */\r\n\r\n    modifier ticketExists(uint _id) {\r\n        require(events[_id].date != 0, \"this event does not exist\");\r\n        _;\r\n    }\r\n\r\n    modifier eventActive(uint _id) {\r\n        require(\r\n            events[_id].date > block.timestamp,\r\n            \"this event does not active anymore\"\r\n        );\r\n        _;\r\n    }\r\n}\r\n",
  "sourcePath": "E:\\Coding\\Web3\\Web3 master\\Event_organizer\\contracts\\EventOrganizer.sol",
  "compiler": {
    "name": "solc",
    "version": "0.8.13+commit.abaa5c0e.Emscripten.clang"
  },
  "schemaVersion": "3.4.16",
  "updatedAt": "2024-12-31T03:43:57.774Z",
  "devdoc": {
    "kind": "dev",
    "methods": {},
    "version": 1
  },
  "userdoc": {
    "kind": "user",
    "methods": {},
    "version": 1
  }
}